{
  "contractName": "Transaction",
  "abi": [
    {
      "constant": true,
      "inputs": [],
      "name": "name",
      "outputs": [
        {
          "name": "",
          "type": "string"
        }
      ],
      "payable": false,
      "stateMutability": "view",
      "type": "function",
      "signature": "0x06fdde03"
    },
    {
      "constant": true,
      "inputs": [
        {
          "name": "_increment",
          "type": "uint256"
        }
      ],
      "name": "variableName",
      "outputs": [
        {
          "name": "",
          "type": "string"
        }
      ],
      "payable": false,
      "stateMutability": "view",
      "type": "function",
      "signature": "0x97c602d6"
    },
    {
      "constant": false,
      "inputs": [
        {
          "name": "_name",
          "type": "string"
        }
      ],
      "name": "changeName",
      "outputs": [
        {
          "name": "",
          "type": "uint256"
        }
      ],
      "payable": false,
      "stateMutability": "nonpayable",
      "type": "function",
      "signature": "0x5353a2d8"
    }
  ],
  "bytecode": "0x60806040526040805190810160405280601481526020017f5472616e73616374696f6e20436f6e74726163740000000000000000000000008152506000908051906020019061004f929190610089565b50602060405190810160405280600081525060019080519060200190610076929190610089565b5034801561008357600080fd5b5061012e565b828054600181600116156101000203166002900490600052602060002090601f016020900481019282601f106100ca57805160ff19168380011785556100f8565b828001600101855582156100f8579182015b828111156100f75782518255916020019190600101906100dc565b5b5090506101059190610109565b5090565b61012b91905b8082111561012757600081600090555060010161010f565b5090565b90565b61046b8061013d6000396000f3fe608060405260043610610057576000357c0100000000000000000000000000000000000000000000000000000000900463ffffffff16806306fdde031461005c578063314d9ec0146100ec5780635353a2d81461017c575b600080fd5b34801561006857600080fd5b50610071610244565b6040518080602001828103825283818151815260200191508051906020019080838360005b838110156100b1578082015181840152602081019050610096565b50505050905090810190601f1680156100de5780820380516001836020036101000a031916815260200191505b509250505060405180910390f35b3480156100f857600080fd5b506101016102e2565b6040518080602001828103825283818151815260200191508051906020019080838360005b83811015610141578082015181840152602081019050610126565b50505050905090810190601f16801561016e5780820380516001836020036101000a031916815260200191505b509250505060405180910390f35b34801561018857600080fd5b506102426004803603602081101561019f57600080fd5b81019080803590602001906401000000008111156101bc57600080fd5b8201836020820111156101ce57600080fd5b803590602001918460018302840111640100000000831117156101f057600080fd5b91908080601f016020809104026020016040519081016040528093929190818152602001838380828437600081840152601f19601f820116905080830192505050505050509192919290505050610380565b005b60008054600181600116156101000203166002900480601f0160208091040260200160405190810160405280929190818152602001828054600181600116156101000203166002900480156102da5780601f106102af576101008083540402835291602001916102da565b820191906000526020600020905b8154815290600101906020018083116102bd57829003601f168201915b505050505081565b60018054600181600116156101000203166002900480601f0160208091040260200160405190810160405280929190818152602001828054600181600116156101000203166002900480156103785780601f1061034d57610100808354040283529160200191610378565b820191906000526020600020905b81548152906001019060200180831161035b57829003601f168201915b505050505081565b806001908051906020019061039692919061039a565b5050565b828054600181600116156101000203166002900490600052602060002090601f016020900481019282601f106103db57805160ff1916838001178555610409565b82800160010185558215610409579182015b828111156104085782518255916020019190600101906103ed565b5b509050610416919061041a565b5090565b61043c91905b80821115610438576000816000905550600101610420565b5090565b9056fea165627a7a7230582068fe79a96cceeacb145937028f84438e6b4affe3a981d8930f9ccc8b1e5df8db0029",
  "source": "pragma solidity ^0.5.0;\n\ncontract Transaction {\n    \n    string public name = \"Transaction Contract\";\n    string public variableName = \"\";\n    \n    function changeName(string memory _name) public {\n        variableName = _name;\n    }\n}",
  "sourcePath": "/home/yashasvi_yc7/Documents/Biconomy/blocknative-onboard/src/contracts/Transaction.sol",
  "compiler": {
    "name": "solc",
    "version": "0.5.0+commit.1d4f565a.Emscripten.clang"
  },
  "schemaVersion": "3.0.8",
  "updatedAt": "2020-04-16T09:22:23.123Z",
  "devdoc": {
    "methods": {}
  },
  "userdoc": {
    "methods": {}
  }
}