{
  "contractName": "Transaction",
  "abi": [
    {
      "constant": true,
      "inputs": [],
      "name": "name",
      "outputs": [
        {
          "name": "",
          "type": "string"
        }
      ],
      "payable": false,
      "stateMutability": "view",
      "type": "function",
      "signature": "0x06fdde03"
    },
    {
      "constant": true,
      "inputs": [
        {
          "name": "_increment",
          "type": "uint256"
        }
      ],
      "name": "counter",
      "outputs": [
        {
          "name": "",
          "type": "uint256"
        }
      ],
      "payable": false,
      "stateMutability": "view",
      "type": "function",
      "signature": "0xb1f525c6"
    },
    {
      "constant": false,
      "inputs": [
        {
          "name": "_increment",
          "type": "uint256"
        }
      ],
      "name": "increaseCounter",
      "outputs": [
        {
          "name": "",
          "type": "uint256"
        }
      ],
      "payable": false,
      "stateMutability": "nonpayable",
      "type": "function",
      "signature": "0x9e80c074"
    }
  ],
  "bytecode": "0x60806040526040805190810160405280601481526020017f5472616e73616374696f6e20436f6e74726163740000000000000000000000008152506000908051906020019061004f929190610067565b50600060015534801561006157600080fd5b5061010c565b828054600181600116156101000203166002900490600052602060002090601f016020900481019282601f106100a857805160ff19168380011785556100d6565b828001600101855582156100d6579182015b828111156100d55782518255916020019190600101906100ba565b5b5090506100e391906100e7565b5090565b61010991905b808211156101055760008160009055506001016100ed565b5090565b90565b61024d8061011b6000396000f3fe608060405260043610610057576000357c0100000000000000000000000000000000000000000000000000000000900463ffffffff16806306fdde031461005c57806361bc221a146100ec5780639e80c07414610117575b600080fd5b34801561006857600080fd5b50610071610166565b6040518080602001828103825283818151815260200191508051906020019080838360005b838110156100b1578082015181840152602081019050610096565b50505050905090810190601f1680156100de5780820380516001836020036101000a031916815260200191505b509250505060405180910390f35b3480156100f857600080fd5b50610101610204565b6040518082815260200191505060405180910390f35b34801561012357600080fd5b506101506004803603602081101561013a57600080fd5b810190808035906020019092919050505061020a565b6040518082815260200191505060405180910390f35b60008054600181600116156101000203166002900480601f0160208091040260200160405190810160405280929190818152602001828054600181600116156101000203166002900480156101fc5780601f106101d1576101008083540402835291602001916101fc565b820191906000526020600020905b8154815290600101906020018083116101df57829003601f168201915b505050505081565b60015481565b60008160015401600181905550600154905091905056fea165627a7a72305820b7fee285b8a9381a9552a7f25ba497219dbf68a737865a81d9bc2e9b373ac5030029",
  "source": "pragma solidity ^0.5.0;\n\ncontract Transaction {\n    \n    string public name = \"Transaction Contract\";\n    uint public counter = 0;\n    \n    function increaseCounter(uint _increment) public returns(uint) {\n        counter = counter + _increment;\n        return counter;\n    }\n}",
  "sourcePath": "/home/yashasvi_yc7/Documents/Biconomy/blocknative-onboard/src/contracts/Transaction.sol",
  "compiler": {
    "name": "solc",
    "version": "0.5.0+commit.1d4f565a.Emscripten.clang"
  },
  "schemaVersion": "3.0.8",
  "updatedAt": "2020-04-16T06:01:22.455Z",
  "devdoc": {
    "methods": {}
  },
  "userdoc": {
    "methods": {}
  }
}